:08000000803102288731ED2F49
:1008A6001834FC347330210099000800640080017C
:1008B6000131890B5A2C0034200098018B130B133D
:1008C60021001110080084315524843184316F24AD
:1008D600843184315F24080023008C018D01FF30B0
:1008E60021008C000E148E140E118E110E128E1213
:1008F6000E130D108E130800FB007B082000A000CD
:10090600A101A2012008F0002108F1002208F2004E
:100916008E30A3002308F300F40185317525700895
:10092600F8007108F9007208FA000800843166249C
:1009360084318431DC248431200053085206031D9F
:10094600A62C0130A72C00305406031DAC2C013018
:10095600AD2C00305506031D9C2C85312425843191
:1009660022008E150E178E160E16FC3020009700EC
:10097600183096001814111CBE2C1110F130970077
:100986002830960020001118CC2C8731142784318A
:10099600C52C111076309700803096008431DC2407
:1009A60084318531242584312000111CD12C11106D
:1009B600B32C7F3020000C05F0007F307006031D3D
:1009C600E72CFD01FD0A062DFD010C087F39F0001C
:1009D6000E080139F1000C0D0C0D0139F200013041
:1009E600F235890BF32C0E0C0139F3000130F33587
:1009F600FF3E031DFA2C733572047104563E8600C1
:100A06008701700881000130F0000E080139F100FD
:100A16000C0D0C0D0139F2000130F235890B102D49
:100A26000E0C0139F3000130F335FF3E031D172D7F
:100A3600733572047104523E860087017008810680
:100A4600080020000C1C2A2D22000D142C2D22003B
:100A56000D1020008C1C322D22008E17342D220002
:100A66008E1301302000C2000030C3004308803AD4
:100A7600FC0080307C02031D422D05304202031823
:100A8600080020004208563E86008701010884318E
:100A96007F24853178082000A7007908A8007A0805
:100AA600A900F630A400A830A5004130A600863182
:100AB6006026853120002408B4002508B5002608E4
:100AC600B6008531D925853120004235483E86005D
:100AD60087013408C03F3508C13F0130C2070030E6
:100AE600C33D392D730803197D2D720871047004F6
:100AF600031D8E2D0030F0000030F1000030F200B2
:100B060008000130F5007508F3070130F236F10CE4
:100B1600F00C890B892DFE3072050319A72D842D43
:100B26000130F5007508F3070130F00700300318AF
:100B36000130F107003003180130F2070130F236B8
:100B4600F10CF00C890BA22DFF3072050319B42DA0
:100B5600932D0130F3020130F035F10DF20D890BC2
:100B6600AF2DF11BBA2D023073020318AC2D73188A
:100B7600C22DFF30F0057F30F105FF30F20503107E
:100B8600F30C7308F500F601F7011030F535F60D94
:100B9600F70D890BC92D7508F0047608F10477085E
:100BA600F204740803190800F2170800200034083C
:100BB600B8003508B9003608BA000310390D3A0DE9
:100BC600BB003B08C1004108031DF22D0030B700F1
:100BD6000030B6000030B5000030B400080034081C
:100BE600B8003508B9003608BA001730BA36B90C5D
:100BF600B80C890BF92D3808BB003B08BC00B517AB
:100C0600FF30B405FF30B5050030B6053408BD0029
:100C16003508BE003608BF00C0018E30C102C11FB4
:100C2600302E4108803A8F3E0318222E0030B7003E
:100C36000030B6000030B5000030B40008000130C6
:100C4600C036BF0CBE0CBD0C890B232E0130B8007C
:100C56003808C1070319492E222E18304102031CF9
:100C6600462E0030B7000030B6000030B500003028
:100C7600B40008000130BD35BE0DBF0DC00D890B97
:100C86003E2E0130C1024108031D3D2E3C080319CA
:100C9600572EBD09BE09BF09C009BD0A0319BE0A00
:100CA6000319BF0A0319C00A4008B7003F08B60077
:100CB6003E08B5003D08B400080020002408AA003C
:100CC6002508AB002608AC0003102B0D2C0DAD003B
:100CD6002D08AE002E08031D772E0030A40000302C
:100CE600A5000030A60008002708AA002808AB00C7
:100CF6002908AC0003102B0D2C0DAD002D08B300F8
:100D06003308031D8D2E0030A4000030A5000030EE
:100D1600A600080033087B3EAA002A08AE0724086E
:100D2600AA002508AB002608AC001030AC36AB0C88
:100D3600AA0C890B992E2A08AD002D08B3002708A6
:100D4600AA002808AB002908AC001030AC36AB0C62
:100D5600AA0C890BA92E2A08AD002D08B3068030EF
:100D6600AA002A08B305A517A817FF30A705FF3064
:100D7600A8050030A9050030AF000030B0000030F3
:100D8600B1000730AA002A08B200241CD02E27087A
:100D9600AF072808B03D2908B13D0130A636A50C9D
:100DA600A40C890BD12E0130A735A80DA90D890BEE
:100DB600D72E0130B202031DC82E0930AA002A0818
:100DC600B200241CEC2E2708AF072808B03D2908DE
:100DD600B13D0130A636A50CA40C890BED2E0130D1
:100DE600B136B00CAF0C890BF32E0130B202031DE5
:100DF600E42E2F08F0003008F1003108F2002E082A
:100E0600AA002A08F3003308AB002B08F40085314A
:100E1600752570082000A4007108A5007208A600B8
:100E260008002830F000F130F1000030F200003008
:100E3600F30020004A08F4004B08F500F601F7011C
:100E46007408F0077508F13D7608F23D7708F33D22
:100E56001608F8001708F900FA01FB017B08803A2A
:100E6600FC007308803A7C02031D432F72087A0245
:100E7600031D432F71087902031D432F7008780262
:100E8600031C4A2F7D08031D4A2F22008E1128308D
:100E9600F000F130F1000030F2000030F3002000E5
:100EA6004C08F4004D08F500F601F7017408F00748
:100EB6007508F13D7608F23D7708F33D1608F8000F
:100EC6001708F900FA01FB017B08803AFC00730859
:100ED600803A7C02031D792F72087A02031D792F4E
:100EE60071087902031D792F70087802031C802F80
:100EF6007D08031D802F22000E132830F000F130EC
:100F0600F1000030F2000030F30020004E08F4003B
:100F16004F08F500F601F7017408F0077508F13D72
:100F26007608F23D7708F33D1608F8001708F90031
:100F3600FA01FB017B08803AFC007308803A7C02C8
:100F4600031DAF2F72087A02031DAF2F71087902B5
:100F5600031DAF2F70087802031CB62F7D08031DF2
:100F6600B62F22008E122830F000F130F10000304A
:100F7600F2000030F30020005008F4005108F5009C
:100F8600F601F7017408F0077508F13D7608F23DA1
:100F96007708F33D1608F8001708F900FA01FB0177
:100FA6007B08803AFC007308803A7C02031DE52F1B
:100FB60072087A02031DE52F71087902031DE52FD9
:100FC60070087802031C08007D08031D0800220033
:100FD6000E120800843153248731DB0084315424F7
:100FE6008731DC00FD014830840000308500133075
:0A0FF6008431592420008431992C25
:020000040001F9
:04000E00A4C9FFD8AA
:00000001FF
