:0400000080314D28D6
:100008007E14803120007F08F50011080139F300C3
:10001800210011080139F4000B0E890C890C0139F3
:100028007405730503191E282000111087317127E4
:10003800803148282000110C0139F3002100110CEF
:100048000139F4000B0E890C890C0139740573050C
:1000580003193428200091108631C526803148289C
:100068002000110E0139F3002100110E0139F400AE
:100078000B0E890C890C013974057305031948287E
:100088002000111287310A2775082000FF007E1012
:10009800090080314F2821008731E2278031E800AC
:1000A8009530840086308500203086000130870036
:1000B80030308731D2278031F601F701F801C53099
:1000C80084000030850023308731D82780315030B4
:1000D80084000130850010308731D8277E10200039
:1000E8008731412F20004E08D4004F08D500500812
:1000F800D6000310550D560DD7005708DA005108E1
:10010800D4005208D5005308D6000310550D560DDB
:10011800D7005708D9005A0803199E2859085A02C7
:100128000318A5285A03FF3A5907D4001930540276
:10013800031CA5285108CE005208CF005308D00050
:1001480008005908031908005A0859020318B42866
:100158005903FF3A5A07D40019305402031808000B
:100168000630D4005408D800D01BD817D31B581712
:10017800CF17FF30CE05FF30CF050030D005D2179E
:10018800FF30D105FF30D2050030D30559085A0297
:100198000318F0280130D135D20DD30D890BCF28A3
:1001A8000130D90259085A060319EB280130D80240
:1001B800580807390319EB28CE280130D036CF0C60
:1001C800CE0C890BE2280130D4005408DA075A080B
:1001D800590603191529E1285A085902031815293F
:1001E8000130CE35CF0DD00D890BF5280130DA025C
:1001F80059085A06031911290130D8025808073935
:1002080003191129F4280130D336D20CD10C890BEB
:1002180008290130D4005408D9075A085906031D83
:100228000729D81F2729FF30CE06FF30CF06FF3019
:10023800D0060130CE07003003180130CF07003058
:1002480003180130D007581F3929FF30D106FF3075
:10025800D206FF30D3060130D10700300318013031
:10026800D207003003180130D307D8014E08D10750
:100278004F08D23D5008D33DD31F5429FF30D10633
:10028800FF30D206FF30D3060130D1070030031803
:100298000130D207003003180130D307D801D80A3B
:1002A8005108A0005208A1005308A2005A08D4001F
:1002B8005408A3005808D5005508A40085316325C3
:1002C80020002008CE002108CF002208D000080016
:1002D8002100AD006803031DC929E80120000D08AD
:1002E8003F392100A3002308AC00AE01AF012F085D
:1002F800803AA30080302302031D842904302E0293
:100308000318C92921002C08A3000430A335890B40
:100318008A2920302307A4002E08A5000130A5351E
:10032800FF3E031D932925352407A60026088600CD
:1003380001308700403FA700413FA800423FA90085
:10034800433FAA002E08AB000130AB35FF3E031D2A
:10035800A9292B35503E8600013087002708C03F69
:100368002808C13F2908C23F2A08C33F0130AE0709
:100378000030AF3D2F08803AA30080302302031DD0
:10038800C72904302E02031C86292100AE01AF01C3
:100398002F08803AA30080302302031DD52904309A
:1003A8002E020318080021002E08A3000130A335EF
:1003B800FF3E031DDB292335503E860001308700B0
:1003C800403F2000E900413FEA00423FEB00433F45
:1003D800EC0005302100A40024082000A000210022
:1003E8002E0887318427813121002D07A500250893
:1003F8008600870101088431F524813120006908CD
:100408002100A60020006A082100A7000530A800E6
:1004180028082000A00021002E0887318427813178
:1004280021002D07A9002908023E86008701260819
:10043800C03F2708C13F2F0885002E088400DE3002
:1004480084078730853D0008A3000530A4002408F0
:100458002000A00021002E08873184278131210047
:100468002D07A5002508043E860087012308810082
:100478000130AE070030AF3DCC292000BB00210081
:1004880063082000BA00210062082000B90021009A
:1004980061082000B800210060082000B700200093
:1004A800380839053A053705031DC42A0E080139ED
:1004B800A400A5010E0C0139A600A701A635A70DB9
:1004C8000E0C890C0139A800A901A835A90DA83579
:1004D800A90D26082804AA0027082904AB00240827
:1004E8002A04AC0025082B04AD002D08803AAE0084
:1004F80080302E02031D822A01302C02031C532A4D
:1005080020000C08A400A5010E080139A6000E0C55
:100518000139A7000130A735890B8F2A0E0C890CE9
:100528000139A8000130A835FF3E031D972A283558
:10053800270426040907FE3E2F3E8600870124086B
:10054800C03F2508C13F0E080139A4000E0C01392F
:10055800A5000130A535890BAE2A0E0C890C01398E
:10056800A6000130A635FF3E031DB62A2635250410
:100578002404FF3E373E860087018101810A532A01
:10058800BC01BD013D08803AA40080302402031D4F
:10059800CF2A04303C020318080020003C35CF3E27
:1005A80086008701403FA400413FA5003C352F3E0F
:1005B80086008701403FA600413FA700250827067F
:1005C800031DE82A24082606031D002B3C352F3E70
:1005D800860087010530A4002408A0003C08873164
:1005E8008427823120003B07A50025088400850167
:1005F800403F803F413F813F3C352F3E8600870189
:100608003C35CF3E84008501403F803F413F813FDC
:100618000130BC070030BD3DC62A20003E08C4009A
:100628003F08C5004008C6000310450D460DC70029
:100638004708C8004808031D282B0030BE000030BA
:10064800BF000030C00008004108C4004208C500CF
:100658004308C6000310450D460DC7004708CD00E6
:100668004D08031D3E2B0030BE000030BF00003097
:10067800C00008004D087B3EC4004408C8073E0877
:10068800C4003F08C5004008C6001030C636C50C77
:10069800C40C890B4A2B4408C7004708CD00410801
:1006A800C4004208C5004308C6001030C636C50C51
:1006B800C40C890B5A2B4408C7004708CD06803064
:1006C800C4004408CD05BF17C217FF30C105FF306D
:1006D800C2050030C3050030C9000030CA00003030
:1006E800CB000730C4004408CC003E1C812B4108D5
:1006F800C9074208CA3D4308CB3D0130C036BF0C8C
:10070800BE0C890B822B0130C135C20DC30D890B7C
:10071800882B0130CC02031D792B0930C400440812
:10072800CC003E1C9D2B4108C9074208CA3D43081E
:10073800CB3D0130C036BF0CBE0C890B9E2B01305F
:10074800CB36CA0CC90C890BA42B0130CC02031D73
:10075800952B4908A0004A08A1004B08A2004808A8
:10076800C4004408A3004D08C5004508A40085310D
:10077800632520002008BE002108BF002208C00011
:10078800080020003108B4003208B5003308B6006C
:100798000310350D360DB7003708BC003C08031DA3
:1007A800DC2B0030AE000030AF000030B000080095
:1007B8002E08B4002F08B5003008B6000310350D18
:1007C800360DB7003708BD003D08031DF22B003079
:1007D800AE000030AF000030B00008000030B900B3
:1007E8000030BA000030BB0089303D07B40034083F
:1007F800BC023108B4003208B5003308B600103026
:10080800B636B50CB40C890B042C3408B70037087D
:10081800BD002E08B4002F08B5003008B60010300F
:10082800B636B50CB40C890B142C3408B70037084D
:10083800BD068030B4003408BD05B217FF30B105DD
:10084800FF30B2050030B305AF17FF30AE05FF30FB
:10085800AF050030B0051830B4003408B8000130D6
:10086800B935BA0DBB0D890B342C30083302031D82
:10087800432C2F083202031D432C2E083102031C7F
:100888004C2C2E08B1022F08B23B3008B33B391468
:100898000130B135B20DB30D890B4D2C0130B802C2
:1008A800031D332C3908A0003A08A1003B08A20018
:1008B8003C08B4003408A3003D08B5003508A4007E
:1008C8008531632520002008AE002108AF002208EA
:1008D800B000080020005B08DF005C08E0005D084D
:1008E800E1000310600D610DE2006208E80068088D
:1008F800031D872C0030DE000030DD000030DC00F6
:100908000030DB0008005B08DF005C08E0005D08E1
:10091800E1001730E136E00CDF0C890B8E2C5F0804
:10092800E2006208E300DC17FF30DB05FF30DC057E
:100938000030DD055B08E4005C08E5005D08E600C2
:10094800E7018E30E802E81FC52C6808803A8F3E20
:100958000318B72C0030DE000030DD000030DC006A
:100968000030DB0008000130E736E60CE50CE40C4B
:10097800890BB82C0130DF005F08E8070319DE2C6B
:10098800B72C18306802031CDB2C0030DE00003066
:10099800DD000030DC000030DB0008000130E43509
:1009A800E50DE60DE70D890BD32C0130E802680848
:1009B800031DD22C63080319EC2CE409E509E609A8
:1009C800E709E40A0319E50A0319E60A0319E70A1D
:1009D8006708DE006608DD006508DC006408DB00E7
:1009E80008002100A2000230693E8600870120002D
:1009F8006909ED006A09EE00ED0A0319EE0A403FA5
:100A08006D07A800413F6E3DA9008631E826843174
:100A180020002808B1002908B2002A08B3000030D5
:100A2800AE003430AF004330B0008331C523843189
:100A380020002E08C1002F08C2003008C300210082
:100A4800220887312627843120002808BE0029087B
:100A5800BF002A08C00083311123843120003E08DA
:100A6800D1003F08D2004008D3006A08A9006908ED
:100A7800A8008631E826843120002808CE002908FD
:100A8800CF002A08D00080317620843120004E081B
:100A9800DB004F08DC005008DD0084316E242000A4
:100AA8005C082100A10020005B082100A0002108AB
:100AB8002000EA00210020082000E90008002000AA
:100AC800230803196C2D220821042004031D7D2D01
:100AD8000030A0000030A1000030A2000800013062
:100AE800A5002508A3070130A236A10CA00C890B8C
:100AF800782DFE3022050319962D732D0130A5009F
:100B08002508A3070130A007003003180130A1070A
:100B1800003003180130A2070130A236A10CA00C46
:100B2800890B912DFF3022050319A32D822D013049
:100B3800A3020130A035A10DA20D890B9E2DA11B8A
:100B4800A92D0230230203189B2D2318B12DFF3045
:100B5800A0057F30A105FF30A2050310A30C2308D0
:100B6800A500A601A7011030A535A60DA70D890B74
:100B7800B82D2508A0042608A1042708A2042408E3
:100B880003190800A21708002000A6002608023E44
:100B980086008701403FA000413FA10087315A27C6
:100BA8008531200021082100C600200020082100EE
:100BB800C50020002608073E86008701403FA000A8
:100BC800413FA10087315A278531200021082100A3
:100BD800C800200020082100C700200026080C3E7D
:100BE80086008701403FA000413FA10087315A2776
:100BF8008531200021082100CA002000200821009A
:100C0800C90020002608113E86008701403FA00049
:100C1800413FA10087315A27200021082100CC003C
:100C2800200020082100CB0008002000A200DE30B0
:100C38008400873085000008A100220821050319D7
:100C48002B2E200C2200031C8E1103188E15DF306A
:100C580084008730850000082000220503193A2EF9
:100C6800200C2200031C0E1303180E17E03084001A
:100C7800873085000008200022050319492E200C22
:100C88002200031C8E1203188E16E1308400873070
:100C9800850000082000220503190800200C220006
:100CA800031C0E1203180E160800F200DE30840032
:100CB800873085000008F1007208710503196A2E53
:100CC800700C2200031C8E1103188E15DF3084006F
:100CD80087308500000872050319782E700C2200F1
:100CE800031C0E1303180E17E030840087308500AC
:100CF800000872050319862E700C2200031C8E1240
:100D080003188E16E13084008730850000087205CC
:100D180003190800700C2200031C0E1203180E168B
:100D28000800983408345834023498340834583455
:100D38000234983408345834023498340834583417
:100D480002348A340734843403348A3407348434CC
:100D580003346C340734203403346C3407342034BF
:100D680003348A34073484340334F6340934583469
:100D78000234F634093458340234F6340934583419
:100D88000234843020009A00043076067704031970
:100D9800E52E7635C53E86008701403F9600413FE7
:100DA8009700F001F00A7708850076088400DE30A5
:100DB80084078730853D000886315926200018149D
:100DC8000800F601F70108002000AD01A91FF32E65
:100DD800A809A909A80A0319A90AAD01AD0A280892
:100DE800A0002908A100A2018E30AB002B08A300A7
:100DF8002D08AC002C08A4008531632520002008AC
:100E0800A8002108A9002208AA00080021006608F5
:100E1800D73E86008701010823009A00013021008F
:100E2800E6070030E73D6708803AF000803070023E
:100E3800031D202F05306602031C08002100E6016F
:100E4800E70108002000AF002F08AB00AC01AD019E
:100E58002B08A0002C08A1002D08A2008E30AE009F
:100E68002E08A300A4018531632520002008A800CE
:100E78002108A9002208AA0008002100B001B00A30
:100E88008731A72787312000A0010F308631192626
:100E98008731B130823141228731B13081316C21C3
:100EA8008731B1308531C82587314D2F2000210881
:100EB800A3002008A200A235A30DA209A309A20A33
:100EC8000319A30A2208FF3EA400FF30233DA50012
:100ED8002508A1002408A0000800F0017708850073
:100EE80076088400DE3084078730853D0008863127
:100EF8005926200018100130F6070030F73D080089
:100F08002000A300A201231C8D2F2008A100210886
:100F1800A2070310A00D0310A30C2308031D872F9D
:100F28002208080023008C018D01FF3021008C006D
:100F3800FF308D000E148E140E158E110E128E12A7
:100F48000E138E1308008731CA27873187319627F9
:100F580087318731B52787318731C1278B170B1721
:100F680008003F3020009805CF3098052100111463
:100F780020009601970118140800033020009C04F3
:100F88002100911420009A011C150800210019085D
:100F9800873970389900033099040800FE00120060
:100FA8001E00FE0BD32F0034640080010131890B31
:0E0FB800D92F003401340234043408340134DB
:020000040001F9
:04000E00A4C9FFD8AA
:00000001FF
