:08000000803102288731E62F50
:1006DE00E83403347330210099000800640080016F
:1006EE000131890B762B0034200098018B130B13EC
:1006FE0021001110080083317123833183319F2330
:10070E00833183317B2383318631C6260800F30083
:10071E00F201731C962B7008F1007108F20703109A
:10072E00F00D0310F30C7308031D902B72080800D4
:10073E0023008C018D01FF3021008C00FF308D00D5
:10074E000E148E140E158E110E128E120E138E1393
:10075E000800FB007B082000A000A101A2012008D8
:10076E00F0002108F1002208F2008E30A3002308C9
:10077E00F300F401843142247008F8007108F90086
:10078E007208FA00080020000C08F0000E0801396B
:10079E00F1000E0C0139F2000130F235890BD42B29
:1007AE000E0C890C0139F3000130F335FF3E031DA9
:1007BE00DC2B733572047104643E86008701700869
:1007CE0081000130F0000E080139F1000E0C0139E4
:1007DE00F2000130F235890BF12B0E0C890C013928
:1007EE00F3000130F335FF3E031DF92B7335720410
:1007FE007104693E86008701700881060800833106
:10080E00822384318331CA23843120006A08690629
:10081E00031D132C0130142C00306B06031D192CF4
:10082E0001301A2C00306C06031D092C8431A624CD
:10083E00843122008E150E178E160E166330200090
:10084E009700C0309600181420001118402C8531E6
:10085E000A258431B13020001702E0300319160248
:10086E00031C2B2C8331CA2384318431A62484317A
:10087E002B2C1110202C730803194A2C72087104AA
:10088E007004031D5B2C0030F0000030F1000030CE
:10089E00F20008000130F5007508F3070130F2365A
:1008AE00F10CF00C890B562CFE3072050319742CCA
:1008BE00512C0130F5007508F3070130F0070030B8
:1008CE0003180130F107003003180130F207013030
:1008DE00F236F10CF00C890B6F2CFF3072050319F8
:1008EE00812C602C0130F3020130F035F10DF20D48
:1008FE00890B7C2CF11B872C023073020318792C88
:10090E0073188F2CFF30F0057F30F105FF30F205A4
:10091E000310F30C7308F500F601F7011030F535EE
:10092E00F60DF70D890B962C7508F0047608F10478
:10093E007708F204740803190800F2170800013052
:10094E002000C5000030C6004608803AFC0080300A
:10095E007C02031DB42C053045020318080020004C
:10096E004508643E8600870101088331B023843137
:10097E0078082000A7007908A8007A08A900053099
:10098E00FC007C08F0004508FF3E83318E23843145
:10099E00A03E86008701403F2000A400413FA500F5
:1009AE00423FA60086311226843120002408C20060
:1009BE002508C3002608C4004208A7004308A80063
:1009CE004408A9002430A400F430A5004930A60044
:1009DE0086311226843120002408B4002508B50083
:1009EE002608B60085318B258431200045355A3EC8
:1009FE00860087013408C03F3508C13F0130C50766
:100A0E000030C63DAB2C02305A3E860087010330C3
:100A1E00A03E84008501403F0007F0000131413FB8
:100A2E00003DF1007008C03EF2006330713DF300EE
:100A3E00730820001702031D262D72081602031CD0
:100A4E002A2D22008E1104305A3E8600870108306E
:100A5E00A03E84008501403F0007F0000131413F78
:100A6E00003DF1007008C03EF2006330713DF300AE
:100A7E00730820001702031D462D72081602031C70
:100A8E004A2D22000E1306305A3E860087010D3085
:100A9E00A03E84008501403F0007F0000131413F38
:100AAE00003DF1007008C03EF2006330713DF3006E
:100ABE00730820001702031D662D72081602031C10
:100ACE006A2D22008E1208305A3E8600870112309F
:100ADE00A03E84008501403F0007F0000131413FF8
:100AEE00003DF1007008C03EF2006330713DF3002E
:100AFE00730820001702031D862D72081602031CB0
:100B0E00080022000E12080020003408B800350834
:100B1E00B9003608BA000310390D3A0DBB003B0878
:100B2E00C1004108031DA42D0030B7000030B600EF
:100B3E000030B5000030B40008003408B8003508A5
:100B4E00B9003608BA001730BA36B90CB80C890B92
:100B5E00AB2D3808BB003B08BC00B517FF30B40501
:100B6E00FF30B5050030B6053408BD003508BE00AF
:100B7E003608BF00C0018E30C102C11FE22D4108F0
:100B8E00803A8F3E0318D42D0030B7000030B600E7
:100B9E000030B5000030B40008000130C036BF0C84
:100BAE00BE0CBD0C890BD52D0130B8003808C1071D
:100BBE000319FB2DD42D18304102031CF82D0030E3
:100BCE00B7000030B6000030B5000030B4000800A9
:100BDE000130BD35BE0DBF0DC00D890BF02D01309E
:100BEE00C1024108031DEF2D3C080319092EBD0952
:100BFE00BE09BF09C009BD0A0319BE0A0319BF0AFF
:100C0E000319C00A4008B7003F08B6003E08B500F9
:100C1E003D08B400080020002408AA002508AB00F7
:100C2E002608AC0003102B0D2C0DAD002D08AE00C8
:100C3E002E08031D292E0030A4000030A500003020
:100C4E00A60008002708AA002808AB002908AC0057
:100C5E0003102B0D2C0DAD002D08B3003308031D12
:100C6E003F2E0030A4000030A5000030A600080082
:100C7E0033087B3EAA002A08AE072408AA002508DE
:100C8E00AB002608AC001030AC36AB0CAA0C890BAE
:100C9E004B2E2A08AD002D08B3002708AA002808FD
:100CAE00AB002908AC001030AC36AB0CAA0C890B8B
:100CBE005B2E2A08AD002D08B3068030AA002A0844
:100CCE00B305A517A817FF30A705FF30A8050030FC
:100CDE00A9050030AF000030B0000030B100073081
:100CEE00AA002A08B200241C822E2708AF07280863
:100CFE00B03D2908B13D0130A636A50CA40C890BD8
:100D0E00832E0130A735A80DA90D890B892E013030
:100D1E00B202031D7A2E0930AA002A08B200241C42
:100D2E009E2E2708AF072808B03D2908B13D013097
:100D3E00A636A50CA40C890B9F2E0130B136B00C33
:100D4E00AF0C890BA52E0130B202031D962E2F0873
:100D5E00F0003008F1003108F2002E08AA002A082F
:100D6E00F3003308AB002B08F400843142247008E2
:100D7E002000A4007108A5007208A600080000302B
:100D8E0084008830850020308600003087001830BF
:100D9E00F40012001E00F40BD02ECF302000CB003A
:100DAE00DF30CC003630CD000830CE000730CF001B
:100DBE002B30D0003130D1003730D200E830D300A4
:100DCE000330D400D830D500C630D6003630D70028
:100DDE007830D8000530D9000530F4007408F000E2
:100DEE000D0807390907203E860087010108833167
:100DFE008E2386314B3E86008701403F2100A000A6
:100E0E00413FA100423FA2000530F4007408F000FB
:100E1E0020000D0807390907203E860087010108CA
:100E2E0083318E238631033E4B3E86008701403F41
:100E3E002100A300413FA4000530F4007408F00027
:100E4E0020000D08073909070C3E203E8600870159
:100E5E00010883318E2386314B3E86008701403F49
:100E6E002100A500413FA600423FA7000530F40037
:100E7E007408F00020000D08073909070C3E203ECB
:100E8E0086008701010883318E238631033E4B3E57
:100E9E0086008701403F2100A800413FA900053090
:100EAE00F4007408F00020000D08F5000330F5364C
:100EBE00890B5E2F750807390907203E86008701CA
:100ECE00010883318E2386314B3E86008701403FD9
:100EDE002100AA00413FAB00423FAC000530F400B8
:100EEE007408F00020000D08F5000330F536890B6C
:100EFE007D2F750807390907203E860087010108F6
:100F0E0083318E238631033E4B3E86008701403F60
:100F1E002100AD00413FAE000530F4007408F00032
:100F2E0020000D08F5000330F536890B9B2F750850
:100F3E00073909070C3E203E8600870101088331E0
:100F4E008E2386314B3E86008701403F2100AF0045
:100F5E00413FB000423FB1000530F4007408F0008C
:100F6E0020000D08F5000330F536890BBB2F7508F0
:100F7E00073909070C3E203E8600870101088331A0
:100F8E008E238631033E4B3E86008701403F210073
:100F9E00B200413FB30020000D0807390907203E7B
:100FAE00860087011600023AF4001600F404031DB1
:100FBE00E32F22008E17080022008E1308008331C3
:100FCE006F238731ED00833170238731EE004B3074
:100FDE008400003085002230833175238731A030A4
:100FEE008400003085001430833175232000843155
:100FFE00062C003400340034003400340034013444
:10100E00003401340034023400340034003401342E
:10101E00003402340034013400340234003402341B
:02102E0000348C
:020000040001F9
:04000E00A4C9FFD8AA
:00000001FF
