:0400000080313228F1
:1000060001347E148031200011080139F4002100EA
:1000160011080139F5000B0E890C890C013975059B
:10002600740503191C28200011108731862780319A
:1000360030282000110E0139F4002100110E01397B
:10004600F5000B0E890C890C013975057405031929
:100056003028200011128F319D277E100900803133
:1000660034282100803103208031E400DF30840011
:1000760087308500203086000130870020308F31A0
:100086002E278031F601F701F801F901A03084002E
:100096000030850022308F3128278031403084009F
:1000A6000130850010308F3128277E1020008F31D7
:1000B600D92F2000B200C901CA0105302000AC00CA
:1000C6002C08A00049088F31722780313207AD0015
:1000D6002D08860087010530AE002E08A0004908CD
:1000E6008F3172278031333E840085010530AF00A1
:1000F60016001A00AF0B7B280130C9070030CA3D35
:100106004A08803AAC0080302C02031D8C2804304B
:100116004902031C60282000C901CA0120004908C1
:10012600013EC70000304A3DC8004808803AAC008E
:1001360080302C02031DA12804304702031815291C
:1001460005302000AC002C08A00047088F3172272C
:100156008031023E333E86008701403FAD00413F7D
:10016600AE000530AF002F08A00049088F31722776
:100176008031023E333E86008701403FB000413F5A
:10018600B1002E083106031DCA282D083006031DAE
:1001960010290530AC002C08A00047088F317227C3
:1001A6008031023E333E860087011600FF3AAD00DD
:1001B6001600FF3AAD04031910290530AC002C08CF
:1001C600A00047088F3172278031023E333E8600F9
:1001D6008701FF30C03FFF30C13F0530AC002C081F
:1001E600A00047088F3172278031043E333E8600D7
:1001F60087010108AD000530AE002E08A0004908B1
:100206008F3172278031043E333E860087012D08E8
:100216008104FF30F807FF30F93D0130C707003091
:10022600C83D982801302000C9070030CA3D4A0859
:10023600803AAC0080302C02031D23290430490289
:10024600031C91282000C901CA0120004A08C800E1
:100256004908C7004808803AAC0080302C02031DCC
:100266003629043047020318882905302000AC00DF
:100276002C08A00049088F3172278031023E333E98
:1002860086008701403FAD00413FAE000530AF001C
:100296002F08A00047088F3172278031023E333E77
:1002A60086008701403FB000413FB1002E08310271
:1002B600031D5F292D083002031879290530AC008B
:1002C6002C08A00047088F3172278031333EAD00DD
:1002D6002D08A4000530AE002E08A00049088F3175
:1002E60072278031333E8731B72780310130C70707
:1002F6000030C83D4808803AAC0080302C02031D0F
:10030600862904304702031C382901302000C9071A
:100316000030CA3D4A08803AAC0080302C02031DEA
:10032600962904304902031C28292000C901CA0164
:1003360005302000AC002C08A00049088F31722738
:100346008031043E333E860087010108AD0049082E
:10035600BB3E860087012D0881000130C9070030A9
:10036600CA3D4A08803AAC0080302C02031DBD29E4
:1003760004304902031C9B2920003608A5003508D5
:10038600A4008F315227803125082100A1002000CA
:1003960024082100A00001302000C9000030CA0056
:1003A6007808FF3EAC00FF30793DAD004A08803A40
:1003B600AE002D08803A2E02031DE3292C084902BF
:1003C6000318152A05302000AC002C08A0004908A7
:1003D6008F3172278031FD3E333E8600870105301E
:1003E600AD002D08A00049088F3172278031023EEA
:1003F600333E84008501403F0002A4000131413FA5
:10040600003BA5008F31522780314935A03E86003A
:1004160087012408C03F2508C13F0130C9070030C5
:10042600CA3DD32905302000AC002C08A00078086E
:100436008F3172278031F83E333E860087012030A7
:10044600AD004E30AE00403F2D02A400413F2E3B92
:10045600A5008F31522778359E3E860087012408F5
:10046600C03F2508C13F08004E08D4004F08D500FC
:100476005008D6000310550D560DD7005708DA0060
:100486005108D4005208D5005308D6000310550D64
:10049600560DD7005708D9005A0803195E2A59087D
:1004A6005A020318652A5908D4005A08D40219308A
:1004B6005402031C652A5108CE005208CF00530887
:1004C600D00008005908031908005A0859020318F1
:1004D600742A5A08D4005908D40219305402031851
:1004E60008000630D4005408D800D01BD817D31BF8
:1004F6005817CF17FF30CE05FF30CF050030D00597
:10050600D217FF30D105FF30D2050030D305590888
:100516005A020318B02A0130D135D20DD30D890BFA
:100526008F2A0130D90259085A060319AB2A01301D
:10053600D802580807390319AB2A8E2A0130D0365B
:10054600CF0CCE0C890BA22A0130D4005408DA074E
:100556005A0859060319D52AA12A5A085902031816
:10056600D52A0130CE35CF0DD00D890BB52A0130F5
:10057600DA0259085A060319D12A0130D802580856
:1005860007390319D12AB42A0130D336D20CD10C3B
:10059600890BC82A0130D4005408D9075A085906CD
:1005A600031DC72AD81FE72AFF30CE06FF30CF0625
:1005B600FF30D0060130CE07003003180130CF07D8
:1005C600003003180130D007581FF92AFF30D10632
:1005D600FF30D206FF30D3060130D10700300318B2
:1005E6000130D207003003180130D307D8014E0876
:1005F600D1074F08D23D5008D33DD31F142BFF30EF
:10060600D106FF30D206FF30D3060130D1070030C5
:1006160003180130D207003003180130D307D80180
:10062600D80A5108A0005208A1005308A2005A088F
:10063600D4005408A3005808D5005508A4008631F4
:1006460053262008CE002108CF002208D00008003B
:100656002000BB000030BA000030B9000030B800FE
:100666000030B7002000380839053A053705031D64
:10067600A62B0E080139A400A5010E0C0139A6000F
:10068600A701A635A70D0E0C890C0139A800A901F2
:10069600A835A90DA835A90D26082804AA002708FB
:1006A6002904AB0024082A04AC0025082B04AD005D
:1006B6002D08803AAE0080302E02031D642B0130D7
:1006C6002C02031C352B20000C08A400A5010E08E3
:1006D6000139A6000E0C0139A7000130A735890B98
:1006E600712B0E0C890C0139A8000130A835FF3E8C
:1006F600031D792B2835270426040907FE3E2F3EC5
:10070600860087012408C03F2508C13F0E0801392D
:10071600A4000E0C0139A5000130A535890B902BDC
:100726000E0C890C0139A6000130A635FF3E031DCB
:10073600982B263525042404FF3E373E8600870184
:100746008101810A352BBC01BD0120003C35AA3E42
:1007560086008701403FA400413FA5003C352F3E5F
:1007660086008701403FA600413FA70025082706CF
:10077600031DBF2B24082606031DD62B3C352F3E12
:10078600860087010530A4002408A0003C088F31AC
:10079600722783313B07A500250884008501403F69
:1007A600803F413F813F3C352F3E860087013C35E7
:1007B600AA3E84008501403F803F413F813F013092
:1007C600BC070030BD3D3D08803AA40080302402BD
:1007D600031DEF2B04303C0203180800A82B210050
:1007E600CC006403031D442CE40120000D083F39AE
:1007F6002100C2004208CB00CD01CE0121004B08EA
:10080600C2000430C235890B052C20304207C300D4
:100816004D08C4000130C435FF3E031D0E2C44357F
:100826004307C5004508860001308700403FC600E3
:10083600413FC700423FC800433FC9004D08CA00B8
:100846000130CA35FF3E031D242C4A35403E860042
:10085600013087004608C03F4708C13F4808C23FED
:100866004908C33F0130CD070030CE3D4E08803ADF
:10087600C20080304202031D422C04304D02031C8C
:10088600012C2100CD01CE0105302100C200420815
:100896002000A00021004D088F31722783312100EE
:1008A6004C07C3004308023E860087014D08C4007A
:1008B6000130C435FF3E031D5C2C4435403E8400A8
:1008C60001308500003F2000E900013FEA00023FB9
:1008D600EB00033FEC0005302100C5004508200071
:1008E600A00021004D088F317227833121004C076B
:1008F600C60046088400850100088631B726833184
:100906006908C03F6A08C13F21004E0885004D08AE
:100916008400FF3084078730853D0008C20005301B
:10092600C30043082000A00021004D088F31722724
:10093600833121004C07C4004408043E8600870129
:10094600420881000130CD070030CE3D4E08803A86
:10095600C20080304202031DB22C04304D0203183F
:100966000800472C3E08C4003F08C5004008C600E2
:100976000310450D460DC7004708C8004808031D6B
:10098600CB2C0030BE000030BF000030C000080095
:100996004108C4004208C5004308C6000310450DBF
:1009A600460DC7004708CD004D08031DE12C003059
:1009B600BE000030BF000030C00008004D087B3E7E
:1009C600C4004408C8074008C4004408CD004308D2
:1009D600C4004408CD068030C4004408CD05BF17C6
:1009E600C217FF30C105FF30C2050030C305003015
:1009F600C9000030CA000030CB000730C4004408EC
:100A0600CC003E1C0C2D4108C9074208CA3D4308CC
:100A1600CB3D0130C036BF0CBE0C890B0D2D01300D
:100A2600C135C20DC30D890B132D0130CC02031D38
:100A3600042D0930C4004408CC003E1C282D410872
:100A4600C9074208CA3D4308CB3D0130C036BF0C3A
:100A5600BE0C890B292D0130CB36CA0CC90C890B6B
:100A66002F2D0130CC02031D202D4908A0004A0875
:100A7600A1004B08A2004808C4004408A3004D0882
:100A8600C5004508A400863153262008BE0021086B
:100A9600BF002208C00008003108B4003208B500C3
:100AA6003308B6000310350D360DB7003708BC0005
:100AB6003C08031D652D0030AE000030AF0000304D
:100AC600B00008002E08B4002F08B5003008B600A4
:100AD6000310350D360DB7003708BD003D08031D60
:100AE6007B2D0030AE000030AF000030B0000800B3
:100AF6000030B9000030BA000030BB0089303D0735
:100B0600B4003408BC023308B4003408BD00300811
:100B1600B4003408BD068030B4003408BD05B217F1
:100B2600FF30B105FF30B2050030B305AF17FF3017
:100B3600AE05FF30AF050030B0051830B4003408FC
:100B4600B8000130B935BA0DBB0D890BA52D30089B
:100B56003302031DB42D2F083202031DB42D2E08B7
:100B66003102031CBD2D2E08B1022F08B23B3008FE
:100B7600B33B39140130B135B20DB30D890BBE2D1F
:100B86000130B802031DA42D3908A0003A08A100BF
:100B96003B08A2003C08B4003408A3003D08B50099
:100BA6003508A400863153262008AE002108AF0080
:100BB6002208B00008005B08DF005C08E0005D0862
:100BC600E1000310600D610DE2006208E8006808AC
:100BD600031DF62D0030DE000030DD000030DC00A5
:100BE6000030DB0008005B08DF005C08E0005D0801
:100BF600E1001730E136E00CDF0C890BFD2D5F08B4
:100C0600E2006208E300DC17FF30DB05FF30DC059D
:100C16000030DD055B08E4005C08E5005D08E600E1
:100C2600E7018E30E802E81F2B2E6808803A8F3ED7
:100C3600031CED2D0130E736E60CE50CE40C890BC0
:100C46001E2E0130DF005F08E80703193C2E1D2E1B
:100C5600183068020318ED2D680803193C2E013080
:100C6600E435E50DE60DE70D890B332E0130E8027C
:100C76002F2E630803194A2EE409E509E609E70958
:100C8600E40A0319E50A0319E60A0319E70A6708DD
:100C9600DE006608DD006508DC006408DB0008008D
:100CA600230803195B2E220821042004031D6C2E41
:100CB6000030A0000030A1000030A2000800013082
:100CC600A5002508A3070130A236A10CA00C890BAC
:100CD600672EFE3022050319852E622E0130A500EF
:100CE6002508A3070130A007003003180130A1072B
:100CF600003003180130A2070130A236A10CA00C67
:100D0600890B802EFF3022050319962E712E023094
:100D16002302031C982E0130A3020130A035A10D39
:100D2600A20D890B912EA11F8A2E2318A02EFF300B
:100D3600A0057F30A105FF30A2050310A30C2308F0
:100D4600A500A601A7011030A535A60DA70D890B94
:100D5600A72E2508A0042608A1042708A204240813
:100D660003190800A21708002000EF0069086B02AB
:100D7600A8006A086C3BA9008F31B927863128087C
:100D8600B1002908B2002A08B3000030AE003430A2
:100D9600AF004330B00085314F2586312E08C100A3
:100DA6002F08C2003008C3006F088F3184278631B0
:100DB6002808BE002908BF002A08C0008431B524CF
:100DC60086313E08D1003F08D2004008D3006A08A9
:100DD600A9006908A8008F31B92786312808CE00F6
:100DE6002908CF002A08D0008231372286314E08E2
:100DF600DB004F08DC005008DD008531DE255C088D
:100E0600EE005B08ED006E08EA006D08E9000800D8
:100E1600A200FF308400873085000008A100220868
:100E2600210503191C2F200C2200031C8E11031808
:100E36008E150030840088308500000820002205C9
:100E460003192B2F200C2200031C0E1303180E1758
:100E5600013084008830850000082000220503192F
:100E66003A2F200C2200031C8E1203188E16023015
:100E76008400883085000008200022050319080038
:100E8600200C2200031C0E1203180E160800F20096
:100E9600FF308400873085000008F1007208710574
:100EA60003195B2F700C2200031C8E1103188E157C
:100EB6000030840088308500000872050319692F08
:100EC600700C2200031C0E1303180E170130840049
:100ED60088308500000872050319772F700C2200F0
:100EE600031C8E1203188E1602308400883085008B
:100EF6000008720503190800700C2200031C0E126C
:100F060003180E1608007635A03E86008701403F7E
:100F16009600413F970076087704031D992F21001C
:100F2600C101C10AF001F00A0F309F2FF0017608C7
:100F3600BA3E86008701010887314A27873101308A
:100F4600F6070030F73D7708803AF3007908803AD3
:100F56007302031DB02F78087602031C08002100D7
:100F6600C101F601F7010800AB002B0886008701D6
:100F760026308400003085000530A50016001A00D2
:100F8600A50BC12F2408860087012B088400850144
:100F96000530A50016001A00A50BCD2F26308600B9
:100FA600003087002408840085010530A50016005E
:100FB6001A00A50BDA2F0800983408345834023486
:100FC6009834083458340234983408345834023487
:100FD60098340834583402348A3407348434033459
:100FE6008A340734843403346C34073420340334AD
:100FF6006C340734203403340134023404340834A6
:101E5000640080010131890B292F0034FE0012003B
:101E60001E00FE0B2F2F0034190887397038990097
:101E70000330990408008F3134278F318F31612767
:101E80008F318F3146278B170B1708003F3020000A
:101E90009805CF3098052100111420009601970174
:101EA000181408002508A7002408A600A635A70DC9
:101EB0002609A8002709A9002908A5002808A400C8
:101EC000080023008C018D01FF3021008C00FF30C1
:101ED0008D000E148E140E158E110E128E120E130E
:101EE0008E1308002000A300A201231C7B2F2008D2
:101EF000A1002108A2070310A00D0310A30C2308C2
:101F0000031D752F22080800AF002F08AB00AC019D
:101F1000AD012B08A0002C08A1002D08A2008E30D6
:101F2000AE002E08A300A401863153262008A80085
:101F30002108A9002208AA00080021003F08B23E9B
:101F400086008701010823009A0001302100BF07A5
:101F50000030C03D4008803AF00080307002031D20
:101F6000B32F05303F02031C08002100BF01C00150
:101F70000800AD01A91FC32FA809A909A80A0319C0
:101F8000A90AAD01AD0A2808A0002908A100A201F4
:101F90008E30AB002B08A3002D08AC002C08A40049
:101FA000863153262008A8002108A9002208AA008B
:101FB00008002100E301E30A8F313B278F31A001A4
:101FC0000F3087310B278F3121006303031DF92F59
:101FD000E301CF3083312B238F31CF308331F22394
:101FE0008F310530F8000030F900CF3080315C20AF
:101FF0008F3121004108031DE42FE301E30AF92F8B
:020000040001F9
:04000E00A4C9FFD8AA
:00000001FF
