:08000000803102288731EE2F48
:1006F2007330210099000800640080010131890BE8
:100702007E2B0034200098018B130B132100111053
:1007120008008331792383318331A72383318331E5
:10072200832383318631CE260800F300F201731C45
:100732009E2B7008F1007108F2070310F00D0310F0
:10074200F30C7308031D982B7208080023008C0118
:100752008D01FF3021008C00FF308D000E148E14AD
:100762000E158E110E128E120E138E130800FB0040
:100772007B082000A000A101A2012008F0002108AE
:10078200F1002208F2008E30A3002308F300F401E6
:1007920084314A247008F8007108F9007208FA00DE
:1007A200080020000C08F0000E080139F1000E0CC0
:1007B2000139F2000130F235890BDC2B0E0C890C69
:1007C2000139F3000130F335FF3E031DE42B73358D
:1007D20072047104643E8600870170088100013052
:1007E200F0000E080139F1000E0C0139F20001305F
:1007F200F235890BF92B0E0C890C0139F30001300B
:10080200F335FF3E031D012C733572047104693EFA
:100812008600870170088106080083318A238431AB
:100822008331D223843120006A086906031D1B2C00
:1008320001301C2C00306B06031D212C0130222CB0
:1008420000306C06031D112C8431AE248431220049
:100852008E150E178E160E16633020009700C030CC
:100862009600181420001118482C85311225843165
:10087200B13020001702E03003191602031C332C9A
:100882008331D22384318431AE248431332C11104C
:10089200282C73080319522C720871047004031D6A
:1008A200632C0030F0000030F1000030F20008004C
:1008B2000130F5007508F3070130F236F10CF00C47
:1008C200890B5E2CFE30720503197C2C592C0130E9
:1008D200F5007508F3070130F00700300318013006
:1008E200F107003003180130F2070130F236F10C43
:1008F200F00C890B772CFF3072050319892C682CB8
:100902000130F3020130F035F10DF20D890B842C28
:10091200F11B8F2C023073020318812C7318972C51
:10092200FF30F0057F30F105FF30F2050310F30CC4
:100932007308F500F601F7011030F535F60DF70DE5
:10094200890B9E2C7508F0047608F1047708F204EE
:10095200740803190800F217080001302000C500CE
:100962000030C6004608803AFC0080307C02031D3D
:10097200BC2C053045020318080020004508643EDF
:100982008600870101088331B8238431780820006A
:10099200A7007908A8007A08A9000530FC007C08A5
:1009A200F0004508FF3E833196238431A03E860045
:1009B2008701403F2000A400413FA500423FA6001E
:1009C20086311A26843120002408C2002508C3007B
:1009D2002608C4004208A7004308A8004408A9004A
:1009E2002430A400F430A5004930A60086311A262E
:1009F200843120002408B4002508B5002608B6007A
:100A0200853193258431200045355A3E8600870181
:100A12003408C03F3508C13F0130C5070030C63D2C
:100A2200B32C02305A3E860087010330A03E840078
:100A32008501403F0007F0000131413F003DF100D8
:100A42007008C03EF2006330713DF300730820006D
:100A52001702031D2E2D72081602031C322D2200CE
:100A62008E1104305A3E860087010830A03E840071
:100A72008501403F0007F0000131413F003DF10098
:100A82007008C03EF2006330713DF300730820002D
:100A92001702031D4E2D72081602031C522D22004E
:100AA2000E1306305A3E860087010D30A03E8400A8
:100AB2008501403F0007F0000131413F003DF10058
:100AC2007008C03EF2006330713DF30073082000ED
:100AD2001702031D6E2D72081602031C722D2200CE
:100AE2008E1208305A3E860087011230A03E8400E2
:100AF2008501403F0007F0000131413F003DF10018
:100B02007008C03EF2006330713DF30073082000AC
:100B12001702031D8E2D72081602031C0800220004
:100B22000E12080020003408B8003508B900360853
:100B3200BA000310390D3A0DBB003B08C100410851
:100B4200031DAC2D0030B7000030B6000030B500F8
:100B52000030B40008003408B8003508B90036087F
:100B6200BA001730BA36B90CB80C890BB32D380855
:100B7200BB003B08BC00B517FF30B405FF30B5051C
:100B82000030B6053408BD003508BE003608BF0087
:100B9200C0018E30C102C11FEA2D4108803A8F3E4A
:100BA2000318DC2D0030B7000030B6000030B5006D
:100BB2000030B40008000130C036BF0CBE0CBD0CC2
:100BC200890BDD2D0130B8003808C1070319032E47
:100BD200DC2D18304102031C002E0030B70000301B
:100BE200B6000030B5000030B40008000130BD3559
:100BF200BE0DBF0DC00D890BF82D0130C102410899
:100C0200031DF72D3C080319112EBD09BE09BF09AA
:100C1200C009BD0A0319BE0A0319BF0A0319C00A93
:100C22004008B7003F08B6003E08B5003D08B400D2
:100C3200080020002408AA002508AB002608AC0002
:100C420003102B0D2C0DAD002D08AE002E08031D38
:100C5200312E0030A4000030A5000030A6000800AC
:100C62002708AA002808AB002908AC0003102B0DA6
:100C72002C0DAD002D08B3003308031D472E0030A4
:100C8200A4000030A5000030A600080033087B3E17
:100C9200AA002A08AE072408AA002508AB002608E5
:100CA200AC001030AC36AB0CAA0C890B532E2A08C0
:100CB200AD002D08B3002708AA002808AB002908B8
:100CC200AC001030AC36AB0CAA0C890B632E2A0890
:100CD200AD002D08B3068030AA002A08B305A51777
:100CE200A817FF30A705FF30A8050030A90500307E
:100CF200AF000030B0000030B1000730AA002A086F
:100D0200B200241C8A2E2708AF072808B03D290804
:100D1200B13D0130A636A50CA40C890B8B2E0130F7
:100D2200A735A80DA90D890B912E0130B202031D22
:100D3200822E0930AA002A08B200241CA62E2708F7
:100D4200AF072808B03D2908B13D0130A636A50CF1
:100D5200A40C890BA72E0130B136B00CAF0C890B55
:100D6200AD2E0130B202031D9E2E2F08F000300876
:100D7200F1003108F2002E08AA002A08F300330815
:100D8200AB002B08F40084314A2470082000A40030
:100D92007108A5007208A60008000030840088309F
:100DA200850020308600003087001830F4001200E1
:100DB2001E00F40BD82ECF302000CB00DF30CC0049
:100DC2003630CD000830CE000730CF002B30D000B7
:100DD2003130D1003730D200E830D3000330D400B4
:100DE200D830D500C630D6003630D7007830D8009B
:100DF2000530D9000530F4007408F0000D080739F9
:100E02000907203E86008701010883319623863137
:100E12004B3E86008701403F2100A000413FA100D8
:100E2200423FA2000530F4007408F00020000D08D3
:100E320007390907203E860087010108833196237E
:100E42008631033E4B3E86008701403F2100A300CE
:100E5200413FA4000530F4007408F00020000D08A2
:100E6200073909070C3E203E8600870101088331BD
:100E7200962386314B3E86008701403F2100A50024
:100E8200413FA600423FA7000530F4007408F0007D
:100E920020000D08073909070C3E203E8600870115
:100EA2000108833196238631033E4B3E860087013B
:100EB200403F2100A800413FA9000530F40074081A
:100EC200F00020000D08F5000330F536890B662F7F
:100ED200750807390907203E86008701010883311A
:100EE200962386314B3E86008701403F2100AA00AF
:100EF200413FAB00423FAC000530F4007408F00003
:100F020020000D08F5000330F536890B852F750892
:100F120007390907203E860087010108833196239D
:100F22008631033E4B3E86008701403F2100AD00E3
:100F3200413FAE000530F4007408F00020000D08B7
:100F4200F5000330F536890BA32F75080739090719
:100F52000C3E203E860087010108833196238631AC
:100F62004B3E86008701403F2100AF00413FB00069
:100F7200423FB1000530F4007408F00020000D0873
:100F8200F5000330F536890BC32F750807390907B9
:100F92000C3E203E8600870101088331962386316C
:100FA200033E4B3E86008701403F2100B200413F95
:100FB200B30020000D0807390907203E860087018B
:100FC2001600023AF4001600F404031DEB2F22006F
:100FD2008E17080022008E1308004B308400003068
:100FE2008500223083317D238731A0308400003098
:100FF2008500143083317D23200084310E2C00348F
:10100200003400340034003400340134003401343C
:101012000034023400340034003401340034023429
:0E10220000340134003402340034023400344F
:020000040001F9
:04000E00A4C9FFD8AA
:00000001FF
