:0400000080310E2815
:100008007E1480312000911E0C2800308331ED23AE
:100018007E100900803110280F308400853085005B
:1000280060308600003087000A308531192580311C
:1000380020308400003085002A3085311F257E104D
:1000480020008331A22BCA0077088A0076080A00AC
:100058008031013A031D58287408F8000130F8353A
:10006800FF3E031D33287835283E8600870181012D
:100078007408F8000130F835FF3E031D3F28783535
:10008800253E860087010030C03FC13F7408F80054
:100098000130F835FF3E031D4D287835273E860090
:1000A80087018101013008007408F8000130F83533
:1000B800FF3E031D5B287835273E8600870101082F
:1000C800031DBE287108F8007408F9000130F935DD
:1000D800FF3E031D6B287935283E860087010108FD
:1000E80020004A07FA007A0886008701780881000C
:1000F8007408F8000130F835FF3E031D7F28783575
:10010800283E860087010103031DA9284A0A8600A4
:10011800870101080F39053A031D9F287408F80064
:100128000130F835FF3E031D95287835273E8600B7
:1001380087018101810A7408F8000130F835FF3E13
:10014800031DA2287835283E9A294A088600870187
:1001580053300106031D56287408F8000130F8359D
:10016800FF3E031DB3287835283E860087018101AC
:10017800810A9D297408F8000130F835FF3E031DF7
:10018800C1287835253E8600870101308107413135
:100198000318810A7408F8000130F835FF3E031D82
:1001A800D1287835253E86008701403FF900413F38
:1001B800FA007208FF3EFB00FF30733DFC007C082C
:1001C800803AFD007A08803A7D02031DED287908FF
:1001D8007B02031806297408F8000130F835FF3E41
:1001E800031DF2287835253E860087010130C03F7F
:1001F8000030C13F7408F8000130F835FF3E031D98
:10020800012951287108F8007408F9000130F935FE
:10021800FF3E031D0B297935253E8600870101081D
:1002280020004A07FA007A088600870178088100CA
:100238007408F8000130F835FF3E031D1F29783592
:10024800253E8600870101084A07F90079088600DB
:10025800870143300106031D65297408F800013041
:10026800F835FF3E031D34297835253E8600870181
:1002780001084A07F9007908FF3E86008701010E48
:100288000F39033A031D65297408F8000130F83561
:10029800FF3E031D4B297835253E86008701013036
:1002A800C03F0030C13F7408F8000130F835FF3E08
:1002B800031D5A297835273E8600870181010230BF
:1002C80008007408F8000130F835FF3E031D68295E
:1002D8007835253E86008701403FF900413FFA0006
:1002E8007208FF3EFB00FF30733DFC007A087C0675
:1002F800031D802979087B06031D9D297408F800D1
:100308000130F835FF3E031D85297835253E8600E6
:1003180087010130C03F0030C13F7408F800013048
:10032800F835FF3E031D94297835273E860087015E
:10033800810100300800DA005308D5000130D535B6
:10034800FF3E031DA32955352B3E8600870101304A
:10035800C03F0030C13F5308D5000130D535FF3EBE
:10036800031DB2295535293E860087010030C03F5C
:10037800C13F5308D5000130D535FF3E031DC029C4
:100388005535293E86008701403FD600413FD700BA
:100398005708803AD8005208803A5802031DD629D7
:1003A800510856020318080020005308D5000130F0
:1003B800D535FF3E031DDC2955352B3E86008701C8
:1003C80001085007D600560886008701010E0F392C
:1003D800D7005308D8000130D835FF3E031DF02957
:1003E8005835293E8600870101355A07D900590832
:1003F80086008701D70E010857060F395706810076
:100408005308D5000130D535FF3E031D072A553561
:100418002B3E8600870101085007D600560A860041
:100428008701010E0F39D7005308D8000130D8359D
:10043800FF3E031D1B2A5835293E860087010135DA
:100448005A07D90059088600870101085706F0396C
:10045800570681005308D5000130D535FF3E031DEE
:10046800312A55352B3E8600870101085007D600F2
:10047800560886008701010E0F39D7005308D800A7
:100488000130D835FF3E031D452A58352B3E8600DE
:10049800870101085007D900590A86008701010819
:1004A8000F3957040F3A031D6C2A5308D500013041
:1004B800D535FF3E031D5C2A5535293E8600870148
:1004C80001355A07D600560A8600870101107E2A90
:1004D8005308D5000130D535FF3E031D6F2A553529
:1004E800293E8600870101355A07D600560A86003C
:1004F800870101145308D5000130D535FF3E031D8F
:10050800812A55352B3E8600870101085007D60001
:10051800560A86008701010E0F39D7005308D80004
:100528000130D835FF3E031D952A58352B3E8600ED
:10053800870101085007D9005908023E8600870143
:1005480001080F3957040F3A031DBD2A5308D50077
:100558000130D535FF3E031DAD2A5535293E8600AD
:10056800870101355A07D600560A8600870181108F
:10057800CF2A5308D5000130D535FF3E031DC02AC8
:100588005535293E8600870101355A07D600560A97
:100598008600870181145308D5000130D535FF3E08
:1005A800031DD22A55352B3E86008701023081076C
:1005B80041310318810A5308D5000130D535FF3E73
:1005C800031DE22A5535293E86008701013081073F
:1005D80041310318810ABD295035403E8600870104
:1005E800011CF92A22000C14FB2A22000C102000FE
:1005F8005035403E86008701811C052B22008C1453
:10060800072B22008C1020005035403E86008701C1
:10061800011D112B22000C15132B22000C11200098
:100628005035403E86008701811D1D2B22008C1508
:100638001F2B22008C1120005035403E8600870178
:10064800011E292B22008D162B2B22008D12200033
:100658005035403E86008701811E352B22000D163D
:10066800372B22000D1220005035403E86008701AE
:10067800011F412B22000D15432B22000D112000D4
:100688005035403E86008701811F4D2B22008D1575
:10069800080022008D1108002000AD01AE012000E5
:1006A8002D08D4000130D435FF3E031D572B543597
:1006B8002B3E860087010130C03F0030C13F01302A
:1006C800AD070030AE3D2E08803AD4008030540289
:1006D800031D702B01302D02031C532B2000AD018C
:1006E800AE0120002D08D4000130D435FF3E031D93
:1006F800792B5435253E860087010130C03F0030F4
:10070800C13F0530D4005408D0002D088431E624B8
:100718008331243E860087018101810A0130AD07BB
:100728000030AE3D2E08803AD40080305402031DBC
:100738009F2B01302D0203180800752B8431F724F4
:10074800833120006908031DA52B33302100A00048
:1007580020082000D0000530D1000030D200003041
:10076800D300D400403081319F2183312000E9013A
:10077800E90A8431A62483318431882483315108DD
:100788002100A200200050082100A100220820001A
:10079800D100210021082000D00084313224833187
:1007A8002100210822040319E32B22082000D1008C
:1007B800210021082000D0008231F02283310B3043
:1007C8002100A0006230890BE72BA00BE72B00006B
:1007D800BD2BCE00230019082000CB004B08F100E8
:1007E8000D30F2000030F3000030F400F500033063
:1007F800F6000530F70033308031272083312000A0
:10080800CC004C08CF004F03031D0C2CB201272C41
:1008180002304F06031D142C0C303206031D0A2C1F
:100828004E08CB004B08F0006808CC004C08F100DB
:100838003208843165248331CD004D08E800013049
:10084800CB004B08B20702304F06031D08000D30DD
:100858003206031D0800E901B201080050080139F9
:10086800D200D20D22000D0820005206FD39520692
:1008780022008D0020005008D2000130D236890BAA
:10088800422C01305205D30022000D0820005306E7
:10089800FE39530622008D0020005008D200023095
:1008A800D236890B542C52080139D300D30ED30DFC
:1008B80022000E0820005306DF39530622008E005E
:1008C8000800F50002307106031D862C04307506F9
:1008D800031D842C350E0F39F200340E0F39F30046
:1008E8000330F335FF3E031D752C73357204F40095
:1008F8007408F60076087006031D842C0130080081
:1009080002300800710808000130AF070030B03D20
:100918003008803AD20080305202083003192F0282
:10092800031C992C2000AF01B00120002F08603E65
:10093800860087010108D200D3015208D00053086D
:10094800D100080020006908031D08006803031D82
:10095800BB2C3330DB005B08D0000530D100003001
:10096800D2000030D300D400403081319F210230C2
:100978002000DB005B08E800E901E90A0800230021
:100988008C018D0121008E170C108C100C118C110C
:100998008D120D120D118D118D100D108E120E125B
:1009A8000800911223009C018A309B001E159F1598
:1009B8009D171D161E128B170B1721009116230069
:1009C8001D160800D300D201531CEE2C5008D1008C
:1009D8005108D2070310D00D0310D30C5308031D80
:1009E800E82C520808008531252584318431C32438
:1009F80084318431D5248431833150230800230085
:100A08001D19082D9D1C0D2D19081D121D160130CC
:100A18000800003008000034013400340234003487
:100A280003340034043402340134FE0012001E0082
:100A3800FE0B1A2D0034640080010131890B202D32
:0A0A48000034F0302100990008008E
:020000040001F9
:04000E00A4C9FFD9A9
:00000001FF
