:0400000080310E2815
:100008007E1480312000911E0C28C03083316C236F
:100018007E1009008031102885313F258031E600A7
:10002800853140258031E70020308400003085008C
:100038002D30853135257E1020008431232CF900A0
:1000480078088A0077080A008031013A031D57288A
:1000580075082000CD000130CD35FF3E031D302846
:100068004D35033E253E8600870181017508CD0088
:100078000130CD35FF3E031D3D284D35253E860018
:1000880087010030C03FC13F7508CD000130CD3534
:10009800FF3E031D4B284D35023E253E8600870155
:1000A80081010130080075082000CD000130CD35F0
:1000B800FF3E031D5B284D35023E253E8600870125
:1000C8000108031DC4287208CD007508CE00013050
:1000D800CE35FF3E031D6C284E35033E253E860077
:1000E800870101087907CF004F08860087014D086E
:1000F80081007508CD000130CD35FF3E031D8028F5
:100108004D35033E253E860087010103031DAC28BB
:10011800790A8600870101080F39053A031DA228CC
:100128007508CD000130CD35FF3E031D97284D35AC
:10013800023E253E860087018101810A7508CD00AF
:100148000130CD35FF3E031DA5284D35033EA929B5
:1001580079088600870153300106031DC2287508F7
:10016800CD000130CD35FF3E031DB6284D35033E89
:10017800253E860087018101810AAD2901300800EA
:100188007508CD000130CD35FF3E031DC7284D351C
:10019800253E860087010130810741310318810A15
:1001A8007508CD000130CD35FF3E031DD7284D35EC
:1001B800253E86008701403FCE00413FCF007308AF
:1001C800FF3ED000FF30743DD1005108803AD20084
:1001D8004F08803A5202031DF3284E0850020318B4
:1001E800142975082000CD000130CD35FF3E031DD0
:1001F800F9284D35253E860087010130C03F003083
:10020800C13F7508CD000130CD35FF3E031D0829DB
:100218004D35023E253E86008701810101300800E8
:1002280072082000CD007508CE000130CE35FF3EA3
:10023800031D1A294E35253E8600870101087907D6
:10024800CF004F08860087014D0881007508CD0052
:100258000130CD35FF3E031D2D294D35253E860045
:10026800870101087907CE004E08860087014330D0
:100278000106031D74297508CD000130CD35FF3EF8
:10028800031D42294D35253E860087010108FF3EA2
:100298007907CE004E0886008701010E0F39033A10
:1002A800031D74297508CD000130CD35FF3E031DAF
:1002B80059294D35253E860087010130C03F003061
:1002C800C13F7508CD000130CD35FF3E031D6829BB
:1002D8004D35023E253E8600870181010230080027
:1002E8007508CD000130CD35FF3E031D77294D350A
:1002F800253E86008701403FCE00413FCF0073086E
:10030800FF3ED000FF30743DD1004F085106031D59
:100318008F294E085006031DAD297508CD00013000
:10032800CD35FF3E031D94294D35253E86008701B6
:100338000130C03F0030C13F7508CD000130CD35D8
:10034800FF3E031DA3294D35023E253E8600870149
:100358008101003008002000DF005808DA00013071
:10036800DA35FF3E031DB4295A35023E293E860080
:1003780087010130C03F0030C13F5808DA00013022
:10038800DA35FF3E031DC4295A35293E8600870108
:100398000030C03FC13F5808DA000130DA35FF3E6F
:1003A800031DD2295A35293E86008701403FDB00CC
:1003B800413FDC005C08803ADD005708803A5D0266
:1003C800031DE82956085B02031808002000580896
:1003D800DA000130DA35FF3E031DEE295A35023EB8
:1003E800293E8600870101085507DB005B08860067
:1003F8008701010E0F39DC005808DD000130DD35BA
:10040800FF3E031D032A5D35293E8600870101351D
:100418005F07DE005E0886008701DC0E01085C06C7
:100428000F395C0681005808DA000130DA35FF3EE2
:10043800031D1A2A5A35023E293E86008701010803
:10044800013E5507DB005B0886008701010E0F3966
:10045800DC005808DD000130DD35FF3E031D302A81
:100468005D35293E8600870101355F07DE005E089D
:100478008600870101085C06F0395C06810058088F
:10048800DA000130DA35FF3E031D462A5A35023EAE
:10049800293E8600870101085507DB005B088600B6
:1004A8008701010E0F39DC005808DD000130DD3509
:1004B800FF3E031D5B2A5D35023E293E860087010B
:1004C8000108013E5507DE005E0886008701010825
:1004D8000F395C040F3A031D842A5808DA000130EA
:1004E800DA35FF3E031D742A5A35293E86008701F6
:1004F80001355F07DB005B0A860087010110962A39
:100508005808DA000130DA35FF3E031D872A5A35CC
:10051800293E8600870101355F07DB005B0A8600FC
:10052800870101145808DA000130DA35FF3E031D4F
:10053800992A5A35023E293E860087010108013E64
:100548005507DB005B0886008701010E0F39DC00C8
:100558005808DD000130DD35FF3E031DAF2A5D354B
:10056800023E293E860087010108023E5507DE004B
:100578005E088600870101080F395C040F3A031DE5
:10058800D82A5808DA000130DA35FF3E031DC82A98
:100598005A35293E8600870101355F07DB005B0A73
:1005A800860087018110EA2A5808DA000130DA3516
:1005B800FF3E031DDB2A5A35293E86008701013597
:1005C8005F07DB005B0A8600870181145808DA00A0
:1005D8000130DA35FF3E031DED2A5A35023E293E29
:1005E800860087010230810741310318810A5808C3
:1005F800DA000130DA35FF3E031DFE2A5A35293E5E
:10060800860087010130810741310318810ACF290B
:100618002000AD01AE012E08803AD9008030590281
:10062800031D182B01302D0203183A2B20002D082A
:10063800D9000130D935FF3E031D1E2B5935023E26
:10064800293E860087010130C03F0030C13F01309C
:10065800AD070030AE3D2E08803AD90080305902EF
:10066800031D382B01302D02031C1A2B2000AD016D
:10067800AE012E08803AD90080305902031D462B5E
:1006880001302D020318080020002D08D900013080
:10069800D935FF3E031D4C2B5935253E8600870171
:1006A8000130C03F0030C13F0530D9005908D5009E
:1006B8002D08853114258331043E203E86008701AC
:1006C8008101810A01302000AD070030AE3D3D2B8D
:1006D8002000D300D40123001908FA007A08F20098
:1006E8000D30F3000030F4000030F500F60026303D
:1006F800F7000530F8003630803123208331FB00C5
:100708007B082000D40054030319922B02305406AE
:10071800031D942B0C3034060319942BB401A82B19
:100728005308FA007A08F0006608FB007B08F1001D
:100738003408843147248331FC007C082000E6001B
:100748000130FA007A08B40702305406031D080085
:100758000D303406031D0800E701B401080020002D
:10076800551CB92B22000C14BB2B22000C102000A6
:10077800D51CC12B22008C14C32B22008C10200006
:10078800551DC92B22000C15CB2B22000C11200063
:10079800D51DD12B22008C15D32B22008C112000C3
:1007A800551ED92B22008D16DB2B22008D1220001E
:1007B800D51EE12B22000D16E32B22000D1220007E
:1007C800551FE92B22000D15EB2B22000D112000DF
:1007D800D51FF12B22008D15080022008D1108006D
:1007E80020003103031DFF2B4608D6004508D5001D
:1007F8008331B3230800023020003106031D0B2C7F
:100808004808D6004708D5008331B32308000330D1
:1008180020003106031D172C4A08D6004908D500C8
:100828008331B3230800043020003106031D08007B
:100838004C08D6004B08D5008331B3230800843117
:10084800DD24843120006708031D262C3630E5009E
:100858006508D5000530D6000030D7000030D80034
:10086800D90043308131AF2184312000E701E70A04
:1008780020006708031D3C2C84318E248431843188
:10088800C72484313C2CF50002307106031D692C05
:1008980004307506031D672C2000380E0F39F2004E
:1008A800370E0F39F3000330F335FF3E031D582C84
:1008B80073357204F4007408F60076087006031D98
:1008C800672C013008000230080071080800200079
:1008D800D8013508031D7A2C3208D6003108D50016
:1008E8008431AE242000B501B50A08005908D600A5
:1008F8005808D5008431AE2484312000B501013078
:10090800D7005708B10705303102031C0800B101B0
:10091800B10A080020006708031D08006603031DCC
:10092800A72C3630E0006008D5000530D60000302E
:10093800D7000030D800D90043308131AF2184314D
:1009480002302000A82C0230E0006008E600E70131
:10095800E70A08002000551CB42C22008D14B62C80
:1009680022008D102000D51CBC2C22000D14BE2C9A
:1009780022000D102000551DC42C22008E160800E0
:1009880022008E12080022000E0E01392000DA0023
:100998000130DA06DA0E22000E0820005A06EF3976
:1009A8005A0622008E0084316B2484318331F4236B
:1009B800080085313B258431853102258431843115
:1009C800F024843183310C232000B101B10AFF30B7
:1009D800DA005A08AF0008002100911223009C0198
:1009E8008A309B001E159F159D171D161E128B170A
:1009F8000B172100911623001D16080023008C01F7
:100A08008D0121008E170C108C100C118C118D1279
:100A18000D120D118D118D100D108E120E12080071
:100A28002000D800D701581C1D2D5508D60056089F
:100A3800D7070310D50D0310D80C5808031D172D20
:100A48005708080023001D192B2D9D1C332D19084C
:100A5800F0007008F1001D121D160130080000306A
:100A68000800640080010131890B362D0034F03014
:0A0A78002100990008000234013447
:020000040001F9
:04000E00A4C9FFD9A9
:00000001FF
