:0400000080310E2815
:100008007E1480312000911E0C28C0308331C72314
:100018007E1009008031102885316B258031E6007B
:1000280085316C258031E700203084000030850060
:100038003130853161257E10200084314F2CF90044
:1000480078088A0077080A008031013A031D57288A
:1000580075082000D1000130D135FF3E031D30283E
:100068005135033E253E8600870181017508D10080
:100078000130D135FF3E031D3D285135253E860010
:1000880087010030C03FC13F7508D1000130D1352C
:10009800FF3E031D4B285135023E253E8600870151
:1000A80081010130080075082000D1000130D135E8
:1000B800FF3E031D5B285135023E253E8600870121
:1000C8000108031DC4287208D1007508D200013048
:1000D800D235FF3E031D6C285235033E253E86006F
:1000E800870101087907D300530886008701510862
:1000F80081007508D1000130D135FF3E031D8028ED
:100108005135033E253E860087010103031DAC28B7
:10011800790A8600870101080F39053A031DA228CC
:100128007508D1000130D135FF3E031D97285135A0
:10013800023E253E860087018101810A7508D100AB
:100148000130D135FF3E031DA5285135033EA929AD
:1001580079088600870153300106031DC2287508F7
:10016800D1000130D135FF3E031DB6285135033E7D
:10017800253E860087018101810AAD2901300800EA
:100188007508D1000130D135FF3E031DC728513510
:10019800253E860087010130810741310318810A15
:1001A8007508D1000130D135FF3E031DD7285135E0
:1001B800253E86008701403FD200413FD3007308A7
:1001C800FF3ED400FF30743DD5005508803AD60074
:1001D8005308803A5602031DF328520854020318A4
:1001E800142975082000D1000130D135FF3E031DC8
:1001F800F9285135253E860087010130C03F00307F
:10020800C13F7508D1000130D135FF3E031D0829D3
:100218005135023E253E86008701810101300800E4
:1002280072082000D1007508D2000130D235FF3E97
:10023800031D1A295235253E8600870101087907D2
:10024800D300530886008701510881007508D10042
:100258000130D135FF3E031D2D295135253E86003D
:10026800870101087907D2005208860087014330C8
:100278000106031D74297508D1000130D135FF3EF0
:10028800031D42295135253E860087010108FF3E9E
:100298007907D200520886008701010E0F39033A08
:1002A800031D74297508D1000130D135FF3E031DA7
:1002B80059295135253E860087010130C03F00305D
:1002C800C13F7508D1000130D135FF3E031D6829B3
:1002D8005135023E253E8600870181010230080023
:1002E8007508D1000130D135FF3E031D77295135FE
:1002F800253E86008701403FD200413FD300730866
:10030800FF3ED400FF30743DD50053085506031D49
:100318008F2952085406031DAD297508D1000130F4
:10032800D135FF3E031D94295135253E86008701AE
:100338000130C03F0030C13F7508D1000130D135D0
:10034800FF3E031DA3295135023E253E8600870145
:100358008101003008002000E3005C08DE00013065
:10036800DE35FF3E031DB4295E35023E293E860078
:1003780087010130C03F0030C13F5C08DE0001301A
:10038800DE35FF3E031DC4295E35293E8600870100
:100398000030C03FC13F5C08DE000130DE35FF3E63
:1003A800031DD2295E35293E86008701403FDF00C4
:1003B800413FE0006008803AE1005B08803A610252
:1003C800031DE8295A085F020318080020005C088A
:1003D800DE000130DE35FF3E031DEE295E35023EAC
:1003E800293E8600870101085907DF005F0886005B
:1003F8008701010E0F39E0005C08E1000130E135AA
:10040800FF3E031D032A6135293E86008701013519
:100418006307E200620886008701E00E01086006B3
:100428000F39600681005C08DE000130DE35FF3ED2
:10043800031D1A2A5E35023E293E860087010108FF
:10044800013E5907DF005F0886008701010E0F395A
:10045800E0005C08E1000130E135FF3E031D302A71
:100468006135293E8600870101356307E20062088D
:100478008600870101086006F039600681005C0883
:10048800DE000130DE35FF3E031D462A5E35023EA2
:10049800293E8600870101085907DF005F088600AA
:1004A8008701010E0F39E0005C08E1000130E135F9
:1004B800FF3E031D5B2A6135023E293E8600870107
:1004C8000108013E5907E200620886008701010819
:1004D8000F3960040F3A031D842A5C08DE000130DE
:1004E800DE35FF3E031D742A5E35293E86008701EE
:1004F80001356307DF005F0A860087010110962A2D
:100508005C08DE000130DE35FF3E031D872A5E35BC
:10051800293E8600870101356307DF005F0A8600F0
:10052800870101145C08DE000130DE35FF3E031D43
:10053800992A5E35023E293E860087010108013E60
:100548005907DF005F0886008701010E0F39E000B8
:100558005C08E1000130E135FF3E031DAF2A61353B
:10056800023E293E860087010108023E5907E20043
:1005780062088600870101080F3960040F3A031DDD
:10058800D82A5C08DE000130DE35FF3E031DC82A8C
:100598005E35293E8600870101356307DF005F0A63
:1005A800860087018110EA2A5C08DE000130DE350A
:1005B800FF3E031DDB2A5E35293E86008701013593
:1005C8006307DF005F0A8600870181145C08DE008C
:1005D8000130DE35FF3E031DED2A5E35023E293E21
:1005E800860087010230810741310318810A5C08BF
:1005F800DE000130DE35FF3E031DFE2A5E35293E52
:10060800860087010130810741310318810ACF290B
:100618002000AD01AE012E08803ADD0080305D0279
:10062800031D182B01302D0203183A2B20002D082A
:10063800DD000130DD35FF3E031D1E2B5D35023E1A
:10064800293E860087010130C03F0030C13F01309C
:10065800AD070030AE3D2E08803ADD0080305D02E7
:10066800031D382B01302D02031C1A2B2000AD016D
:10067800AE012E08803ADD0080305D02031D462B56
:1006880001302D020318080020002D08DD0001307C
:10069800DD35FF3E031D4C2B5D35253E8600870169
:1006A8000130C03F0030C13F0530DD005D08D90092
:1006B8002D08853140258331043E203E8600870180
:1006C8008101810A01302000AD070030AE3D3D2B8D
:1006D80020003103031D822B4F08031D7A2B30089D
:1006E800DA002F08D90084310E24080020004808B9
:1006F800DA004708D90084310E24080002302000AF
:100708003106031D992B4F08031D912B3008DA0081
:100718002F08D90084310E24080020004A08DA0086
:100728004908D90084310E2408000330200031061E
:10073800031DB02B4F08031DA82B3008DA002F0823
:10074800D90084310E24080020004C08DA004B0838
:10075800D90084310E240800043020003106031D1E
:1007680008004F08031DBF2B3008DA002F08D900F6
:1007780084310E24080020004E08DA004D08D90004
:1007880084310E2408002000D700D801230019085E
:10079800FA007A08F2000F30F3000030F40000305D
:1007A800F500F6005230F7000530F8003630803199
:1007B80023208331FB007B082000D800580303194D
:1007C800ED2B02305806031DEF2B0E3034060319AB
:1007D800EF2BB401032C5708FA007A08F0006608DA
:1007E800FB007B08F1003408843173248331FC005A
:1007F8007C082000E6000130FA007A08B4070230CD
:100808005806031D08000F303406031D0800E701D1
:10081800B40108002000591C142C22000C14162CBA
:1008280022000C102000D91C1C2C22008C141E2C19
:1008380022008C102000591D242C22000C15262C77
:1008480022000C112000D91D2C2C22008C152E2CD6
:1008580022008C112000591E342C22008D16362CB3
:1008680022008D122000D91E3C2C22000D163E2C91
:1008780022000D122000591F442C22000D15462C71
:1008880022000D112000D91F4C2C22008D150800C4
:1008980022008D1108008531092584312000670860
:1008A800031D522C3630E5006508D9000630DA0001
:1008B8000030DB000030DC00DD0045308131AF2145
:1008C80084312000E701E70A20006708031D682C2F
:1008D8008431BA2484318431F3248431682CF500BE
:1008E80002307106031D952C04307506031D932CE8
:1008F8002000380E0F39F200370E0F39F30003309D
:10090800F335FF3E031D842C73357204F40074081C
:10091800F60076087006031D932C0130080002309B
:100928000800710808002000DC013508031DA62C0A
:100938003208DA003108D9008431DA242000B50100
:10094800B50A08005D08DA005C08D9008431DA24A9
:1009580084312000B5010130DB005B08B1070530A8
:100968003102031C0800B101B10A08002000670821
:10097800031D08006603031DD32C3630E400640809
:10098800D9000630DA000030DB000030DC00DD0082
:1009980045308131AF21843102302000D42C02301F
:1009A800E4006408E600E701E70A08002000591C93
:1009B800E02C22008D14E22C22008D102000D91C7E
:1009C800E82C22000D14EA2C22000D102000591DDD
:1009D800F02C22008E16080022008E120800220039
:1009E8000E0E01392000DE000130DE06DE0E220088
:1009F8000E0820005E06EF395E0622008E00843164
:100A08009724843183316C2308008531672585312B
:100A180085312E25853185311C25853183310C237F
:100A28002000B101B10AFF30DE005E08AF00080007
:100A38002100911223009C018A309B001E159F15EE
:100A48009D171D161E128B170B17210091162300D8
:100A58001D16080023008C018D0121008E170C1033
:100A68008C100C118C118D120D120D118D118D1011
:100A78000D108E120E1208002000DC00DB015C1C39
:100A8800492D5908DA005A08DB070310D90D03105D
:100A9800DC0C5C08031D432D5B08080023001D19AE
:100AA800572D9D1C5F2D1908F0007008F1001D12CC
:100AB8001D16013008000030080064008001013173
:100AC800890B622D0034F0302100990008000234AF
:020AD8000134E7
:020000040001F9
:04000E00A4C9FFD9A9
:00000001FF
