:0400000080310E2815
:100008007E1480312000911E0C28C0308331A52336
:100018007E10090080311028853127258031E100C4
:10002800853128258031E200853129258031E3009A
:1000380085312A258031E400FD012030840000301C
:100048008500283085311B257E1020008431792CCD
:10005800F90078088A0077080A008031013A031D00
:10006800602875082000C8000130C835FF3E031D10
:1000780039284835033E253E8600870181017508E9
:10008800C8000130C835FF3E031D46284835253EC7
:10009800860087010030C03FC13F7508C8000130A5
:1000A800C835FF3E031D54284835023E253E8600CC
:1000B800870181010130080075082000C80001305F
:1000C800C835FF3E031D64284835023E253E86009C
:1000D80087010108031DCD287208C8007508C900EA
:1000E8000130C935FF3E031D75284935033E253EBD
:1000F8008600870101087907CA004A088600870137
:10010800480881007508C8000130C835FF3E031D46
:1001180089284835033E253E860087010103031DD3
:10012800B528790A8600870101080F39053A031DA9
:10013800AB287508C8000130C835FF3E031DA0284C
:100148004835023E253E860087018101810A7508EF
:10015800C8000130C835FF3E031DAE284835033EB0
:10016800B22979088600870153300106031DCB2880
:100178007508C8000130C835FF3E031DBF28483543
:10018800033E253E860087018101810AB629013098
:1001980008007508C8000130C835FF3E031DD02887
:1001A8004835253E86008701013081074131031813
:1001B800810A7508C8000130C835FF3E031DE028D4
:1001C8004835253E86008701403FC900413FCA00A7
:1001D8007308FF3ECB00FF30743DCC004C08803ADA
:1001E800CD004A08803A4D02031DFC2849084B02FD
:1001F80003181D2975082000C8000130C835FF3EC6
:10020800031D02294835253E860087010130C03F7D
:100218000030C13F7508C8000130C835FF3E031DD6
:1002280011294835023E253E8600870181010130AB
:10023800080072082000C8007508C9000130C935D7
:10024800FF3E031D23294935253E86008701010805
:100258007907CA004A08860087014808810075089E
:10026800C8000130C835FF3E031D36294835253EF4
:100278008600870101087907C900490886008701B7
:1002880043300106031D7D297508C8000130C835B3
:10029800FF3E031D4B294835253E8600870101088E
:1002A800FF3E7907C900490886008701010E0F390A
:1002B800033A031D7D297508C8000130C835FF3E83
:1002C800031D62294835253E860087010130C03F5D
:1002D8000030C13F7508C8000130C835FF3E031D16
:1002E80071294835023E253E86008701810102308A
:1002F80008007508C8000130C835FF3E031D802975
:100308004835253E86008701403FC900413FCA0065
:100318007308FF3ECB00FF30743DCC004A084C0602
:10032800031D982949084B06031DB6297508C800FE
:100338000130C835FF3E031D9D294835253E8600FE
:1003480087010130C03F0030C13F7508C800013047
:10035800C835FF3E031DAC294835023E253E8600C0
:1003680087018101003008002000DA005308D50019
:100378000130D535FF3E031DBD295535023E293EC6
:10038800860087010130C03F0030C13F5308D500C7
:100398000130D535FF3E031DCD295535293E860050
:1003A80087010030C03FC13F5308D5000130D53523
:1003B800FF3E031DDB295535293E86008701403F56
:1003C800D600413FD7005708803AD8005208803AF3
:1003D8005802031DF129510856020318080020008D
:1003E8005308D5000130D535FF3E031DF729553593
:1003F800023E293E8600870101085007D6005608AC
:1004080086008701010E0F39D7005308D800013044
:10041800D835FF3E031D0C2A5835293E8600870132
:1004280001355A07D900590886008701D70E0108F7
:1004380057060F39570681005308D5000130D535C6
:10044800FF3E031D232A5535023E293E86008701BB
:100458000108013E5007D600560886008701010EA4
:100468000F39D7005308D8000130D835FF3E031D97
:10047800392A5835293E8600870101355A07D9009F
:1004880059088600870101085706F0395706810088
:100498005308D5000130D535FF3E031D4F2A553589
:1004A800023E293E8600870101085007D6005608FB
:1004B80086008701010E0F39D7005308D800013094
:1004C800D835FF3E031D642A5835023E293E860072
:1004D80087010108013E5007D900590886008701A5
:1004E80001080F3957040F3A031D8D2A5308D50008
:1004F8000130D535FF3E031D7D2A5535293E86003E
:10050800870101355A07D600560A8600870101106F
:100518009F2A5308D5000130D535FF3E031D902A88
:100528005535293E8600870101355A07D600560AF7
:100538008600870101145308D5000130D535FF3EE8
:10054800031DA22A5535023E293E8600870101086F
:10055800013E5007D600560886008701010E0F3964
:10056800D7005308D8000130D835FF3E031DB82AFC
:100578005835023E293E860087010108023E500791
:10058800D90059088600870101080F3957040F3A26
:10059800031DE12A5308D5000130D535FF3E031D60
:1005A800D12A5535293E8600870101355A07D600DC
:1005B800560A860087018110F32A5308D5000130B6
:1005C800D535FF3E031DE42A5535293E86008701AF
:1005D80001355A07D600560A860087018114530848
:1005E800D5000130D535FF3E031DF62A5535023EAC
:1005F800293E860087010230810741310318810AAC
:100608005308D5000130D535FF3E031D072B55355E
:10061800293E860087010130810741310318810A8C
:10062800D8292000D20001305205D00022000C0841
:1006380020005006FE39500622008C002000523659
:100648000139D000D00D22000C0820005006FD39D9
:10065800500622008C0020005208D0000230D0360C
:10066800890B332B50080139D100D10DD10D22004F
:100678000C0820005106FB39510622008C0020008E
:100688005208D0000330D036890B472B0130500573
:10069800D10022000E0820005106FE395106220022
:1006A8008E0020005208D0000430D036890B592B18
:1006B80050080139D100D10D22000E082000510642
:1006C800FD39510622008E0020005208D000053066
:1006D800D036890B6C2B50080139D100D10DD10DC2
:1006E80022000E0820005106FB39510622008E0018
:1006F80020005208D0000630D036890B802B5008D5
:100708000139D100D10E22000E0820005106EF3920
:10071800510622008E0020005208D0000730D03643
:10072800890B932B50080139D100D10DD10DD10D72
:1007380022000E0820005106F739510622008E00CB
:1007480008002000CE00CF0123001908FA007A081B
:10075800F2000D30F3000030F4000030F500F60030
:10076800F230F7000430F800313080312C2083312A
:10077800FB007B082000CF004F030319CB2B02306E
:100788004F06031DCD2B0C302F060319CD2BAF01BF
:10079800E12B4E08FA007A08F0006308FB007B089A
:1007A800F1002F0884319D248331FC007C0820004F
:1007B800E3000130FA007A08AF0702304F06031D44
:1007C80008000D302F06031D0800E401AF010800E2
:1007D800200050080139D200D20ED20D22000E0896
:1007E80020005206DF39520622008E0020005108F0
:1007F800D3005008D200530DD30CD20C5208013943
:10080800D400D40ED40D22000C0820005406DF3981
:10081800540622008C0020005108D3005008D20052
:10082800530DD30CD20C530DD30CD20C52080139F2
:10083800D400D40E22000C0820005406EF395406C8
:1008480022008C00080020003008031D352C6208A7
:10085800D1006108D0008331EC232000B001B00A38
:1008680008000030D000D1008331EC23843120000F
:10087800B0010130E1070030E23D6208803AD5005E
:1008880080305502031D4A2C05306102031C080004
:1008980001302000E1000030E20008002000610380
:1008A8006204031D5B2C40088331152308000230C5
:1008B800200061066204031D652C4208833115235C
:1008C80008000330200061066204031D6F2C4408F1
:1008D8008331152308000430200061066204031DDB
:1008E8000800460883311523080085310125843125
:1008F80020006408031D7C2C3130E0006008D00023
:100908000530D1000030D2000030D300D4003E3092
:100918008131B82184312000E401E40A2000640810
:10092800031D922C8431C1248431853121258431E1
:10093800922CF50002307106031DBF2C0430750699
:10094800031DBD2C2000330E0F39F200320E0F3973
:10095800F3000330F335FF3E031DAE2C73357204EC
:10096800F4007408F60076087006031DBD2C0130EB
:100978000800023008007108080020006408031D00
:1009880008006303031DDA2C3130DB005B08D0005C
:100998000530D1000030D2000030D300D4003E3002
:1009A8008131B821843102302000DB2C0230DB0099
:1009B8005B08E300E401E40A080021009112230027
:1009C8009C018A309B001E159F159D171E128B17C0
:1009D8000B172100911623001D16080023001D196E
:1009E800F72C9D1CFF2C1908F0007008F1001D124F
:1009F8001D160130080000300800853113258531A7
:100A080085310A2585318431E124080023008C01D1
:100A180021008C168E0105303C00A40008006030CF
:100A28003200990006309F001C180800182D640039
:100A380080010131890B1C2D003484312724853134
:0E0A4800843152240800013400340234013499
:020000040001F9
:08000E008AD732E5FFDFFFFF96
:00000001FF
